{
  "contractName": "TestContract",
  "abi": [
    {
      "constant": true,
      "inputs": [],
      "name": "getTestValue",
      "outputs": [
        {
          "internalType": "bytes32",
          "name": "",
          "type": "bytes32"
        }
      ],
      "payable": false,
      "stateMutability": "view",
      "type": "function"
    },
    {
      "constant": false,
      "inputs": [
        {
          "internalType": "bytes32",
          "name": "newValue",
          "type": "bytes32"
        }
      ],
      "name": "setTestValue",
      "outputs": [
        {
          "internalType": "bool",
          "name": "",
          "type": "bool"
        }
      ],
      "payable": false,
      "stateMutability": "nonpayable",
      "type": "function"
    }
  ],
  "bytecode": "0x608060405234801561001057600080fd5b5060e68061001f6000396000f3fe6080604052348015600f57600080fd5b506004361060325760003560e01c8063a420e5d2146037578063b9d08589146053575b600080fd5b603d6096565b6040518082815260200191505060405180910390f35b607c60048036036020811015606757600080fd5b8101908080359060200190929190505050609f565b604051808215151515815260200191505060405180910390f35b60008054905090565b6000816000819055506001905091905056fea265627a7a72315820755ba9737c00be2fa83584b734fddd407f550f9d6d8c08c511ad243ff18312df64736f6c63430005100032",
  "source": "// SPDX-License-Identifier: MIT\r\npragma solidity >=0.4.22 <0.9.0;\r\n\r\ncontract TestContract {\r\n    bytes32 testValue;\r\n\r\n    function getTestValue() view public returns (bytes32) {\r\n        return testValue;\r\n    }\r\n\r\n    function setTestValue(bytes32 newValue) public returns (bool) {\r\n        testValue = newValue;\r\n        return true;\r\n    }\r\n\r\n}",
  "sourcePath": "C:/Users/mmwoj/Desktop/git/eth-react-app/eth-react-dapp/contracts/Test.sol",
  "compiler": {
    "name": "solc",
    "version": "0.5.16+commit.9c3226ce.Emscripten.clang"
  },
  "schemaVersion": "3.3.3",
  "updatedAt": "2021-02-05T21:52:52.134Z",
  "networkType": "ethereum",
  "devdoc": {
    "methods": {}
  },
  "userdoc": {
    "methods": {}
  }
}